{
  "_format": "hh-sol-artifact-1",
  "contractName": "SimpleNumber",
  "sourceName": "contracts/SimpleNumber.sol",
  "abi": [
    {
      "inputs": [],
      "name": "getNumber",
      "outputs": [
        {
          "internalType": "uint256",
          "name": "",
          "type": "uint256"
        }
      ],
      "stateMutability": "pure",
      "type": "function"
    }
  ],
  "bytecode": "0x6080604052348015600f57600080fd5b5060b680601d6000396000f3fe6080604052348015600f57600080fd5b506004361060285760003560e01c8063f2c9ecd814602d575b600080fd5b60336047565b604051603e91906067565b60405180910390f35b6000600a905090565b6000819050919050565b6061816050565b82525050565b6000602082019050607a6000830184605a565b9291505056fea2646970667358221220ef28e860a7e2f895022623afa7961e0e7a5a509858221fd8470edea79582335764736f6c634300081c0033",
  "linkReferences": {},
  "deployedLinkReferences": {}
}